S00B00004C43442E7372656346
S113000045C0000058C0000056C0000054C00000A5
S113001052C0000050C000004EC000004CC00000A0
S11300204AC0000048C0000046C0000044C00000B0
S113003042C0000040C000003EC000003CC00000C0
S11300403AC0000038C0000036C0000034C00000D0
S113005032C0000030C000002EC000002CC00000E0
S11300602AC0000028C0000026C0000024C00000F0
S113007022C0000020C000001EC000001CC0000000
S11300801AC0000018C0000016C0000011241FBED2
S1130090CFEFD0E1DEBFCDBF11E0A0E0B1E0E8E5F5
S11300A0F3E000E00BBF02C007900D92A031B1074E
S11300B0D9F726D14FC1A4CF13B887EF82B90895D9
S11300C083B18E7F83B982B18F7082B983B182602C
S11300D083B983B1846083B985E08A95F1F7000020
S11300E083B18B7F83B991B1907F83B1846083B9ED
S11300F085E08A95F1F7000083B18B7F83B981B1E4
S113010082958F70892B0895DBDF8823ECF30895A3
S1130110CF93DF93C82FD62FF7DFDD2321F083B1F0
S1130120816083B903C083B18E7F83B982B1806F4C
S113013082B983B18D7F83B983B1282F2F7035E0C5
S11301403A95F1F700008C2F807F822B83B983B11D
S1130150846083B985E08A95F1F7000083B18B7FD1
S113016083B930E1C39FC0011124822B83B983B1C9
S1130170846083B985E08A95F1F7000083B18B7FB1
S113018083B9DF91CF91089597DF2FEF81EE94E04B
S1130190215080409040E1F700C0000083B18E7F81
S11301A083B982B1806F82B983B18D7F83B980E3D3
S11301B083B983B1846083B925E02A95F1F70000FF
S11301C083B18B7F83B98FE19EE40197F1F700C07F
S11301D0000083B1846083B995E09A95F1F700003B
S11301E083B18B7F83B98FE99FE00197F1F700C05A
S11301F0000083B1846083B995E09A95F1F700001B
S113020083B18B7F83B98FE99FE00197F1F700C039
S1130210000080E283B983B1846083B995E09A9544
S1130220F1F7000083B18B7F83B960E088E270DF6F
S113023060E088E06DDF60E081E06ADF60E082E03A
S113024067DF60E086E064DF60E08CE061CF089502
S1130250CF93C82F59DFCA3049F4803410F480E4B6
S113026001C080E060E0806853DF0EC0803121F47B
S113027060E080EC4DDF05C0803519F460E080E873
S113028047DF61E08C2F44DFCF910895962F8823B8
S113029031F080E4860F60E080683ACF089560E032
S11302A0892F806835CF0895EF92FF920F931F93A3
S11302B0CF938B01877090E0880F991F880F991F47
S11302C0880F991F60E0806423DFC0E00AC07801D2
S11302D08FEFE81AF80A61E0F801808119DFCF5F37
S11302E08701C830A0F360E082E012DFCF911F9154
S11302F00F91FF90EF90089560E081E009CF089599
S113030043DF68E071E081E0CFDF60E071E082E02C
S1130310CBDFD1E060E080E0B9DFEEDFC0E003C016
S11303208D2F96DFCF5FC031D8F38AE091DFC0E034
S113033003C08D2F8DDFCF5FC031D8F32FEF83ED56
S113034090E3215080409040E1F700C0000083E03A
S10B0350D827E0CFF894FFCF99
S1130358000A1F1F0E040000000A15110A040000F9
S9030000FC
