:1000000045C000004BC0000049C0000047C00000D0
:1000100045C0000043C0000041C000003FC00000D8
:100020003DC000003BC0000039C0000037C00000E8
:1000300088C0000033C0000031C000002FC00000A5
:100040002DC000002BC0000029C0000027C0000008
:1000500025C0000038C0000021C000001FC0000003
:100060001DC000001BC0000019C0000017C0000028
:1000700015C0000013C0000011C000000FC0000038
:100080000DC000000BC0000009C0000011241FBEFD
:10009000CFEFD0E1DEBFCDBF70D00CC2B1CF97B1F2
:1000A000906497B996B1976096B996B1906896B9F1
:1000B00096B1906296B997B1907E892B87B986B137
:1000C000806486B908951F920F920FB60F92112483
:1000D0000BB60F922F933F934F935F936F937F9342
:1000E0008F939F93AF93BF93EF93FF9364B175B1D9
:1000F00080E090E0EED020E030EC4FE754E455D0C3
:1001000020E034E244E757E472D1B7D06A3688E1A0
:10011000780710F46AE678E17BBD6ABDFF91EF9144
:10012000BF91AF919F918F917F916F915F914F910F
:100130003F912F910F900BBE0F900FBE0F901F900D
:1001400018951F920F920FB60F9211242F938F9331
:100150009F9328B398B3892F90E0880F991F922F0F
:10016000991F9927991F892B88BB9F918F912F9158
:100170000F900FBE0F901F9018958FEF87BB81E0F7
:1001800088BB8EB588608EBD8EB584608EBD84E2DE
:1001900094EF9BBD8ABD87B7806187BF86B18860B9
:1001A00086B980E07CDF7894FFCF0CD0E6C0DED04B
:1001B00040F0D5D030F021F45F3F19F0C7C05111A5
:1001C00010C1CAC0EBD098F39923C9F35523B1F3FA
:1001D000951B550BBB27AA2762177307840738F0B6
:1001E0009F5F5F4F220F331F441FAA1FA9F333D015
:1001F0000E2E3AF0E0E830D091505040E695001CC9
:10020000CAF729D0FE2F27D0660F771F881FBB1F84
:10021000261737074807AB07B0E809F0BB0B802D5E
:10022000BF01FF2793585F4F2AF09E3F510568F0AA
:100230008DC0D7C05F3FECF3983EDCF38695779591
:100240006795B795F7959F5FC9F7880F911D9695AC
:10025000879597F90895E1E0660F771F881FBB1F08
:10026000621773078407BA0720F0621B730B840BB5
:10027000BA0BEE1F88F7E095089598D088F09F5745
:1002800090F0B92F9927B751A0F0D1F0660F771FE2
:10029000881F991F1AF0BA95C9F712C0B13081F0C2
:1002A0009FD0B1E008959CC0672F782F8827B85F52
:1002B00039F0B93FCCF3869577956795B395D9F723
:1002C0003EF490958095709561957F4F8F4F9F4F2D
:1002D0000895E89409C097FB3EF490958095709539
:1002E00061957F4F8F4F9F4F9923A9F0F92F96E982
:1002F000BB279395F695879577956795B795F111F7
:10030000F8CFFAF4BB0F11F460FF1BC06F5F7F4F93
:100310008F4F9F4F16C0882311F096E911C07723A5
:1003200021F09EE8872F762F05C0662371F096E8AE
:10033000862F70E060E02AF09A95660F771F881F7D
:10034000DAF7880F9695879597F9089597F99F673B
:1003500080E870E060E008959FEF80EC089500244D
:100360000A941616170618060906089500240A941A
:1003700012161306140605060895092E0394000CA0
:1003800011F4882352F0BB0F40F4BF2B11F460FF2F
:1003900004C06F5F7F4F8F4F9F4F089557FD905858
:1003A000440F551F59F05F3F71F04795880F97FB39
:1003B000991F61F09F3F79F08795089512161306F3
:1003C0001406551FF2CF4695F1DF08C01616170622
:1003D0001806991FF1CF8695710561050894089557
:1003E000E894BB2766277727CB0197F908950BD0B0
:1003F000C4CFB5DF28F0BADF18F0952309F0A6CFF7
:10040000ABCF1124EECFCADFA0F3959FD1F3950FA8
:1004100050E0551F629FF001729FBB27F00DB11D88
:10042000639FAA27F00DB11DAA1F649F6627B00D18
:10043000A11D661F829F2227B00DA11D621F739F01
:10044000B00DA11D621F839FA00D611D221F749F0F
:100450003327A00D611D231F849F600D211D822F56
:10046000762F6A2F11249F5750408AF0E1F088239D
:100470004AF0EE0FFF1FBB1F661F771F881F9150AA
:100480005040A9F79E3F510570F060CFAACF5F3F63
:10049000ECF3983EDCF3869577956795B795F795DD
:1004A000E7959F5FC1F7FE2B880F911D9695879565
:0804B00097F90895F894FFCFBD
:00000001FF
