:1000000045C0000053C0000051C000004FC00000B8
:100010004DC000004BC0000049C0000047C00000B8
:1000200045C0000043C0000041C000003FC00000C8
:100030003DC000003BC0000039C0000037C00000D8
:1000400036C0000033C0000031C000002FC00000E7
:100050002DC000002BC0000029C0000027C00000F8
:1000600025C0000023C0000021C000001FC0000008
:100070001DC000001BC0000019C0000017C0000018
:1000800015C0000013C0000011C0000011241FBEE5
:10009000CFEFD0E1DEBFCDBF21E0A0E0B1E001C0F5
:1000A0001D92A630B207E1F787D0B0C0A9CF1F924A
:1000B0000F920FB60F9211240BB60F92CF92DF92D0
:1000C000EF92FF922F933F934F935F936F937F93A2
:1000D0008F939F93AF93BF93CF93DF93EF93FF9350
:1000E000C0900001D0900101E0900201F090030166
:1000F00040910401509105018FEFC81AD80AE80A0F
:10010000F80A485E5F4FEA01D695C795D695C79520
:10011000D695C7959E01A5ECB0E269D0FC01F29599
:10012000E295EF70EF27FF70EF27CE0EDF1EE11C88
:10013000F11C28EE33E0E29FC001E39F900DF29F97
:10014000900D1124481B590BC0920001D09201015F
:10015000E0920201F09203015093050140930401E3
:10016000FF91EF91DF91CF91BF91AF919F918F91CF
:100170007F916F915F914F913F912F91FF90EF9001
:10018000DF90CF900F900BBE0F900FBE0F901F907F
:1001900018952FB7F894609100017091010180913A
:1001A0000201909103012FBF089583B7846083BF3C
:1001B00087B7816087BF0895F8DF81E087BB18BAF1
:1001C0007894C0E0C12CD12C7601E3DF8B019C0137
:1001D0000C191D092E093F09093E1340210531055F
:1001E000A0F321E0C227C8BB6B017C01EECFA29F28
:1001F000B001B39FC001A39F700D811D1124911DFB
:10020000B29F700D811D1124911D0895F894FFCFA8
:00000001FF
