S0110000496E746572727570742E7372656346
S113000045C0000054C0000051C000004FC00000B3
S11300104DC000004BC0000049C0000047C00000B4
S113002045C0000043C0000041C000003FC00000C4
S11300303DC000003BC0000039C0000037C00000D4
S113004035C0000033C0000031C000002FC00000E4
S11300502DC000002BC0000029C0000027C00000F4
S113006025C0000023C0000021C000001FC0000004
S11300701DC000001BC0000019C0000017C0000014
S113008015C0000013C0000011C0000011241FBEE1
S1130090CFEFD0E1DEBFCDBF21E0A0E0B1E001C0F1
S11300A01D92A130B207E1F716D045C0A9CF1F9227
S11300B00F920FB60F9211248F939F93909100018A
S11300C081E08927809300019F918F910F900FBE4B
S11300D00F901F9018958FEF87BB91E092BB89B763
S11300E0816089BFEAE6F0E0808182608083789451
S11300F098BB80910001882349F028B380E8289FA9
S11301009001112488B38695822B0AC028B398B332
S1130110892F90E0880F991F221F2227221F822BEC
S113012088BB9FEF29E688E1915020408040E1F7A9
S10D013000C00000DECFF894FFCFFA
S9030000FC
