S0180000495220636F6D6D756E69636174696F6E2E73726563DB
S113000045C0000061C000005EC000005CC000008C
S11300105AC0000058C0000056C0000054C0000080
S113002052C0000050C000004EC000004CC0000090
S11300304AC0000048C0000046C0000044C00000A0
S113004042C0000040C000003EC000003CC00000B0
S11300503AC0000038C0000036C0000034C00000C0
S113006032C0000030C000002EC000002CC00000D0
S11300702AC0000028C0000000C1000037C10000F1
S113008022C0000020C000001EC0000011241FBEBA
S1130090CFEFD0E1DEBFCDBF11E0A0E0B1E0E2E9F7
S11300A0F9E000E00BBF02C007900D92A833B1073E
S11300B0D9F722E0A8E3B1E001C01D92A734B2074A
S11300C0E1F7C1D064C49CCF1F920F920FB60F9278
S11300D011240BB60F920F931F932F933F934F93BB
S11300E05F936F937F938F939F93AF93BF93EF939C
S11300F0FF9306B600FE07C080E290E090930101F2
S11301008093000187C022B7822F90E040910001C4
S1130110509101014032510551F5AC014A5C51093D
S11301204331510568F4109238011092390110924C
S11301303A0110923B0110920101109200016AC031
S1130140875A9109439760F41F922F938EE191E0AF
S11301509F938F935CD10F900F900F900F905AC084
S113016080E290E0909301018093000153C08932B2
S1130170910538F080E290E09093010180930001B2
S113018049C0409138015091390160913A01709110
S11301903B018A019B01000F111F221F331F41E005
S11301A050E060E070E04B9718F440E050E0BA0192
S11301B0402B512B622B732B409338015093390100
S11301C060933A0170933B01809100019091010189
S11301D04F97B9F48091380190913901A0913A0177
S11301E0B0913B01BF93AF939F938F938FE291E0C4
S11301F09F938F930CD10F900F900F900F900F90AF
S11302000F9080910001909101010196909301015A
S11302108093000112BE86B7816086BFFF91EF9183
S1130220BF91AF919F918F917F916F915F914F910A
S11302303F912F911F910F910F900BBE0F900FBE06
S11302400F901F90189587E690E080D0E1E4F2E0EB
S113025080E191E09383828382E091E091838083C3
S113026089B7816089BFEAE6F0E08081826080839B
S113027083B7876083BF7894FFCF1F920F920FB626
S11302800F9211240BB60F922F933F934F935F93CA
S11302908F939F93EF93FF9320919B0030919C0049
S11302A0287180913E0190E001968F7799274091C3
S11302B03D0150E08417950739F080933E01FC011D
S11302C0EF5BFE4F308301C022E020933C01FF919D
S11302D0EF919F918F915F914F913F912F910F904B
S11302E00BBE0F900FBE0F901F9018951F920F9288
S11302F00FB60F9211240BB60F928F939F93EF9327
S1130300FF939091400180913F01981779F080917B
S11303103F0190E001968F77992780933F01FC017C
S1130320EF53FE4F808180939C0005C0EAE9F0E022
S113033080818F7D8083FF91EF919F918F910F90AA
S11303400BBE0F900FBE0F901F9018959C018FB796
S1130350F89491E009C01092400110923F0110926C
S11303603E0110923D0190E09111F5CF8FBF3323F0
S113037024F482E080939B003F773093980020938D
S1130380990088E980939A0086E080939D000895FF
S11303903FB7F89421E013C090913E0180913D0154
S11303A0981304C03FBF80E091E0089580913D011F
S11303B090E001968F77992780933D0120E02111E9
S11303C0EBCF3FBFFC01EF5BFE4F208180913C01EE
S11303D090E0982F8827820F911D08954091400145
S11303E050E04F5F5F4F4F77552720913F0130E03A
S11303F042175307D1F3FA01EF53FE4F8083409322
S11304004001EAE9F0E08081806280830895CF931F
S1130410DF93CDB7DEB7AE014B5F5F4FFA01619159
S11304207191AF01809143029091440203D0DF9116
S1130430CF9108952F923F924F925F926F927F9245
S11304408F929F92AF92BF92CF92DF92EF92FF92E0
S11304500F931F93CF93DF93CDB7DEB72B970FB6D0
S1130460F894DEBF0FBECDBF6C017B018A01FC0195
S113047017821682838181FFBFC1CE0101963C01A0
S1130480F6019381F70193FD859193FF81917F019B
S1130490882309F4ADC1853239F493FD859193FF26
S11304A081917F01853221F4B60190E0D6D1E8CF65
S11304B0912C212C312CFFE1F315D8F08B3279F0FB
S11304C038F4803279F08332A1F4232D20611DC0E9
S11304D08D3261F0803369F4232D216016C0832DA1
S11304E08260382EE32DE4603E2E2AC0F32DF8609E
S11304F01DC037FC2DC020ED280F2A3040F08E326D
S1130500B9F436FC75C1232D2064322E19C036FE91
S113051006C08AE0989E200D1124922E11C0EAE0B4
S11305202E9E200D1124222EF32DF0623F2E08C0A2
S11305308C3621F4832D8068382E02C0883641F42D
S1130540F70193FD859193FF81917F018111B3CFD1
S1130550982F9F7D9554933028F40C5F1F4F9FE391
S113056099830DC0833631F0833771F0833509F0F8
S113057055C020C0F801808189830E5F1F4F8824F5
S11305808394912C530112C02801F2E04F0E511CA8
S1130590F801A080B18036FE03C0692D70E002C06E
S11305A06FEF7FEFC5014ED14C018201F32DFF7730
S11305B03F2E15C0280122E0420E511CF801A080F4
S11305C0B18036FE03C0692D70E002C06FEF7FEF8B
S11305D0C5012DD14C01F32DF0683F2E820133FC6F
S11305E019C0822D90E088169906A0F4B60180E225
S11305F090E033D12A94F5CFF50137FC859137FE8D
S113060081915F01B60190E028D121102A9421E064
S1130610821A91088114910479F7E1C0843611F0AB
S1130620893639F5F80137FE07C06081718182810E
S113063093810C5F1F4F08C060817181072E000CED
S1130640880B990B0E5F1F4FF32DFF763F2E97FFFC
S113065009C090958095709561957F4F8F4F9F4FFE
S1130660F0683F2E2AE030E0A30133D1882E8618AB
S113067044C0853731F4232D2F7EB22E2AE030E09A
S113068025C0932D997FB92E8F36C1F018F4883583
S113069079F0AEC0803719F0883721F0A9C0E92F6E
S11306A0E061BE2EB4FE0DC0FB2DF460BF2E09C068
S11306B034FE0AC0292F2660B22E06C028E030E09E
S11306C005C020E130E002C020E132E0F801B7FECD
S11306D007C060817181828193810C5F1F4F06C0C6
S11306E06081718180E090E00E5F1F4FA301F1D023
S11306F0882E8618FB2DFF773F2E36FE0DC0232D46
S11307002E7FA22E891458F434FE0BC032FC09C08B
S1130710832D8E7EA82E05C0B82CA32C03C0B82C24
S113072001C0B92CA4FE0FC0FE01E80DF11D8081AB
S1130730803321F49A2D997EA92E09C0A2FE06C009
S1130740B394B39404C08A2D867809F0B394A3FCBF
S113075010C0A0FE06C0B21480F4280C922C9B1882
S11307600DC0B21458F4B60180E290E076D0B39490
S1130770F8CFB21418F42B1802C0982C212CA4FE24
S11307800FC0B60180E390E068D0A2FE16C0A1FCC1
S113079003C088E790E002C088E590E0B6010CC091
S11307A08A2D867851F0A1FE02C08BE201C080E25E
S11307B0A7FC8DE2B60190E050D0891430F4B60164
S11307C080E390E04AD09A94F8CF8A94F301E80D3C
S11307D0F11D8081B60190E040D08110F6CF222037
S11307E009F44ECEB60180E290E037D02A94F7CFD8
S11307F0F6018681978102C08FEF9FEF2B960FB68B
S1130800F894DEBF0FBECDBFDF91CF911F910F9142
S1130810FF90EF90DF90CF90BF90AF909F908F901C
S11308207F906F905F904F903F902F900895FC01C0
S11308300590615070400110D8F7809590958E0F07
S11308409F1F0895FC016150704001900110D8F77A
S1130850809590958E0F9F1F08950F931F93CF93AC
S1130860DF93FB01238121FD03C08FEF9FEF2CC099
S113087022FF16C0468157812481358142175307D0
S113088044F4A081B1819D012F5F3F4F31832083C8
S11308908C93268137812F5F3F4F3783268314C083
S11308A08B01EC01FB010084F185E02D0995892B76
S11308B0E1F6D80116968D919C911797019617969B
S11308C09C938E931697CE01DF91CF911F910F9138
S11308D00895FA01AA27283051F1203181F1E894D2
S11308E06F936E7F6E5F7F4F8F4F9F4FAF4FB1E01F
S11308F03ED0B4E03CD0670F781F891F9A1FA11D1A
S1130900680F791F8A1F911DA11D6A0F711D811D1A
S1130910911DA11D20D009F468943F912AE0269FDF
S113092011243019305D3193DEF6CF010895462F3E
S11309304770405D4193B3E00FD0C9F7F6CF462F1F
S11309404F70405D4A3318F0495D31FD4052419388
S113095002D0A9F7EACFB4E0A69597958795779545
S11309606795BA95C9F700976105710508959B01CC
S1130970AC010A2E06945795479537952795BA9555
S1130980C9F7620F731F841F951FA01D0895F89463
S1050990FFCF93
S1130992200000000001000000000000C801000067
S11309A20000000200000000EE01000000002568C3
S11309B2753A207265706561742E2E2E0D0A003010
S10B09C278256C580D0A0000B1
S9030000FC
