:1000000045C0000058C0000056C0000054C00000A9
:1000100052C0000050C000004EC000004CC00000A4
:100020004AC0000048C0000046C0000044C00000B4
:1000300042C0000040C000003EC000003CC00000C4
:100040003AC0000038C0000036C0000034C00000D4
:1000500032C0000030C000002EC000002CC00000E4
:100060002AC0000028C0000026C0000024C00000F4
:1000700022C0000020C000001EC000001CC0000004
:100080001AC0000018C0000016C0000011241FBED6
:10009000CFEFD0E1DEBFCDBF11E0A0E0B1E0EAE8F4
:1000A000F1E000E00BBF02C007900D92AA30B1074B
:1000B000D9F727D068C0A4CF88B3816088BB88B344
:1000C0008E7F88BB089588B3826088BB88B38D7F9C
:1000D00088BB0895CF93DF93D82FC0E00CC0DD23F9
:1000E00024F488B3846088BB03C088B38B7F88BB4B
:1000F000E3DFDD0FCF5FC83090F3E5DFDF91CF9115
:10010000089587B3876087BB80E0C82FD0E0FE01E9
:10011000E050FF4F80818095DDDFCE0101966AE0DF
:1001200070E00AD02FEF39E698E12150304090403E
:10013000E1F700C00000E9CF97FB072E16F400940A
:1001400006D077FD08D00BD007FC05D03EF4909583
:1001500081959F4F0895709561957F4F0895AA1BD3
:10016000BB1B51E107C0AA1FBB1FA617B70710F0A2
:10017000A61BB70B881F991F5A95A9F780959095D4
:0A018000BC01CD010895F894FFCFF3
:0A018A003F065B4F666D7D277F6F17
:00000001FF
